{
  "transactions": [
    {
      "hash": "0x1f5e2dcabd77ab3dfcb180ba3e9f91a9bbe6af28ef8cb11e024227cbf0d2ad87",
      "transactionType": "CALL",
      "contractName": null,
      "contractAddress": "0xd344e886856a31b6594337e51a6eefc07dd5d1db",
      "function": "updateWorker(address,bool)",
      "arguments": [
        "0x4d6585D89F889F29f77fd7Dd71864269BA1B31df",
        "true"
      ],
      "transaction": {
        "from": "0x4eeb748bd7ca4d4e582d5b9c60c73acdf67d4b8c",
        "to": "0xd344e886856a31b6594337e51a6eefc07dd5d1db",
        "gas": "0x1283b",
        "value": "0x0",
        "input": "0x896b4be90000000000000000000000004d6585d89f889f29f77fd7dd71864269ba1b31df0000000000000000000000000000000000000000000000000000000000000001",
        "nonce": "0x27",
        "chainId": "0x2105"
      },
      "additionalContracts": [],
      "isFixedGasLimit": false
    }
  ],
  "receipts": [
    {
      "status": "0x1",
      "cumulativeGasUsed": "0x3c104a6",
      "logs": [
        {
          "address": "0xd344e886856a31b6594337e51a6eefc07dd5d1db",
          "topics": [
            "0x988d040d21ebfc430db6cf3c20bc0a6f4ff9d36f2cb7c6dea70424a709746734"
          ],
          "data": "0x0000000000000000000000004d6585d89f889f29f77fd7dd71864269ba1b31df0000000000000000000000000000000000000000000000000000000000000001",
          "blockHash": "0xb9b2b7db0ca764483ebcb0a104e047002931b7880263548b6376e787cfaf0488",
          "blockNumber": "0x1b1d55b",
          "transactionHash": "0x1f5e2dcabd77ab3dfcb180ba3e9f91a9bbe6af28ef8cb11e024227cbf0d2ad87",
          "transactionIndex": "0x68",
          "logIndex": "0x14f",
          "removed": false
        }
      ],
      "logsBloom": "0x00000000000000000000000000000010000000000000000000000000000000000000000000000000000000000000020000000000000000000000000000000000000000000000000002000000000000000000000000000000000000000000000000000000000000000000000000000000000000000000000000000000000000000000000000000000000000000000000000000000000000000000000000000000000000000000000000000000000000000000400000000000000000000000000000000000200000000000000000000000000000000000000000000000000000000000000000000000000000000000000000000000000000000002000000000000",
      "type": "0x2",
      "transactionHash": "0x1f5e2dcabd77ab3dfcb180ba3e9f91a9bbe6af28ef8cb11e024227cbf0d2ad87",
      "transactionIndex": "0x68",
      "blockHash": "0xb9b2b7db0ca764483ebcb0a104e047002931b7880263548b6376e787cfaf0488",
      "blockNumber": "0x1b1d55b",
      "gasUsed": "0xd678",
      "effectiveGasPrice": "0x1fd2e9",
      "from": "0x4eeb748bd7ca4d4e582d5b9c60c73acdf67d4b8c",
      "to": "0xd344e886856a31b6594337e51a6eefc07dd5d1db",
      "contractAddress": null,
      "l1BaseFeeScalar": "0x8dd",
      "l1BlobBaseFee": "0x145c",
      "l1BlobBaseFeeScalar": "0x101c12",
      "l1Fee": "0x55d5d8f8",
      "l1GasPrice": "0x17a26bf9",
      "l1GasUsed": "0x640"
    }
  ],
  "libraries": [],
  "pending": [],
  "returns": {},
  "timestamp": 1743652762,
  "chain": 8453,
  "commit": "2868d57"
}