{
  "transactions": [
    {
      "hash": "0xadc58fcb340c37b0f461775b9e9849f8408d685e5a431a1d5db31f1611316671",
      "transactionType": "CALL",
      "contractName": null,
      "contractAddress": "0xd344e886856a31b6594337e51a6eefc07dd5d1db",
      "function": "setCreateAgentTokenCost(address,uint256)",
      "arguments": [
        "0x0000000000000000000000000000000000000000",
        "0"
      ],
      "transaction": {
        "from": "0x4eeb748bd7ca4d4e582d5b9c60c73acdf67d4b8c",
        "to": "0xd344e886856a31b6594337e51a6eefc07dd5d1db",
        "gas": "0xbc73",
        "value": "0x0",
        "input": "0x19ea61c400000000000000000000000000000000000000000000000000000000000000000000000000000000000000000000000000000000000000000000000000000000",
        "nonce": "0x31",
        "chainId": "0x2105"
      },
      "additionalContracts": [],
      "isFixedGasLimit": false
    },
    {
      "hash": "0x2b347e417286c1ee2a6dc0b8d6561528be0c48b5ca98b1e8629fad1247809e05",
      "transactionType": "CALL",
      "contractName": null,
      "contractAddress": "0xd344e886856a31b6594337e51a6eefc07dd5d1db",
      "function": "setUpdateCreateAgentTokenCost(address,uint256)",
      "arguments": [
        "0x0000000000000000000000000000000000000000",
        "0"
      ],
      "transaction": {
        "from": "0x4eeb748bd7ca4d4e582d5b9c60c73acdf67d4b8c",
        "to": "0xd344e886856a31b6594337e51a6eefc07dd5d1db",
        "gas": "0xbcb6",
        "value": "0x0",
        "input": "0x821c8ba100000000000000000000000000000000000000000000000000000000000000000000000000000000000000000000000000000000000000000000000000000000",
        "nonce": "0x32",
        "chainId": "0x2105"
      },
      "additionalContracts": [],
      "isFixedGasLimit": false
    }
  ],
  "receipts": [
    {
      "status": "0x1",
      "cumulativeGasUsed": "0x25547a2",
      "logs": [
        {
          "address": "0xd344e886856a31b6594337e51a6eefc07dd5d1db",
          "topics": [
            "0x694aa63d946094ce1aeccef5c17db0a23a409eddfb68793b3c29fea103d12086"
          ],
          "data": "0x00000000000000000000000000000000000000000000000000000000000000000000000000000000000000000000000000000000000000000000000000000000",
          "blockHash": "0xe3b92e75664af67f0808abe6fd77c05ddbbaa3ea55e3daa38b39be70adcb76aa",
          "blockNumber": "0x1d4cd4e",
          "transactionHash": "0xadc58fcb340c37b0f461775b9e9849f8408d685e5a431a1d5db31f1611316671",
          "transactionIndex": "0xb5",
          "logIndex": "0x3a5",
          "removed": false
        }
      ],
      "logsBloom": "0x00000000000000000000000000000010000000000000000000000004000000000000000000000000000000000000020000000000000000000000008000000000000000000000000000000000000000000000000000000000000000000000000000000000000000000000000000000000000000000000000000000000000000000000000000000000000000000000000000000000000000000000000000000000000000000000000000000000000000000000000000000000000000000000000000000000000000000000000000000000000000000000010000000000000000000000000000000000000000000000000000000000000000000002000000000000",
      "type": "0x2",
      "transactionHash": "0xadc58fcb340c37b0f461775b9e9849f8408d685e5a431a1d5db31f1611316671",
      "transactionIndex": "0xb5",
      "blockHash": "0xe3b92e75664af67f0808abe6fd77c05ddbbaa3ea55e3daa38b39be70adcb76aa",
      "blockNumber": "0x1d4cd4e",
      "gasUsed": "0x80db",
      "effectiveGasPrice": "0xccdbe",
      "from": "0x4eeb748bd7ca4d4e582d5b9c60c73acdf67d4b8c",
      "to": "0xd344e886856a31b6594337e51a6eefc07dd5d1db",
      "contractAddress": null,
      "l1BaseFeeScalar": "0x8dd",
      "l1BlobBaseFee": "0x1",
      "l1BlobBaseFeeScalar": "0x101c12",
      "l1Fee": "0x559ab499",
      "l1GasPrice": "0x1794717e",
      "l1GasUsed": "0x640"
    },
    {
      "status": "0x1",
      "cumulativeGasUsed": "0x255d042",
      "logs": [
        {
          "address": "0xd344e886856a31b6594337e51a6eefc07dd5d1db",
          "topics": [
            "0xb74c378f83cb6eb186d519c74f0def054cc246ca81bccd2c53b5d0d699501324"
          ],
          "data": "0x00000000000000000000000000000000000000000000000000000000000000000000000000000000000000000000000000000000000000000000000000000000",
          "blockHash": "0xe3b92e75664af67f0808abe6fd77c05ddbbaa3ea55e3daa38b39be70adcb76aa",
          "blockNumber": "0x1d4cd4e",
          "transactionHash": "0x2b347e417286c1ee2a6dc0b8d6561528be0c48b5ca98b1e8629fad1247809e05",
          "transactionIndex": "0xb6",
          "logIndex": "0x3a6",
          "removed": false
        }
      ],
      "logsBloom": "0x00000000000000000000000000000010000004000000000000000000000000000000000000000000000000000000020000000000000000000100000000000000000000000000000000400000000000000000000000000000000000000000000000000000000000000000000000000000000000000000000000000000000000000000000000000000000000000000000000000000000000000000000000000000000000000000000000000000000000000000000000000000000000000000000000000000000000000000000000000000000000000000000000000000000000000000000000000000000000000000000000000000000000000002000000000000",
      "type": "0x2",
      "transactionHash": "0x2b347e417286c1ee2a6dc0b8d6561528be0c48b5ca98b1e8629fad1247809e05",
      "transactionIndex": "0xb6",
      "blockHash": "0xe3b92e75664af67f0808abe6fd77c05ddbbaa3ea55e3daa38b39be70adcb76aa",
      "blockNumber": "0x1d4cd4e",
      "gasUsed": "0x88a0",
      "effectiveGasPrice": "0xccdbe",
      "from": "0x4eeb748bd7ca4d4e582d5b9c60c73acdf67d4b8c",
      "to": "0xd344e886856a31b6594337e51a6eefc07dd5d1db",
      "contractAddress": null,
      "l1BaseFeeScalar": "0x8dd",
      "l1BlobBaseFee": "0x1",
      "l1BlobBaseFeeScalar": "0x101c12",
      "l1Fee": "0x559ab499",
      "l1GasPrice": "0x1794717e",
      "l1GasUsed": "0x640"
    }
  ],
  "libraries": [],
  "pending": [],
  "returns": {},
  "timestamp": 1748236160,
  "chain": 8453,
  "commit": "15b5520"
}