{
  "transactions": [
    {
      "hash": "0x2884f219010cc2747b7c673623a68570605eb863dfa0aadf7e89949722935a6b",
      "transactionType": "CALL",
      "contractName": null,
      "contractAddress": "0xd344e886856a31b6594337e51a6eefc07dd5d1db",
      "function": "addPaymentAddress(address)",
      "arguments": [
        "0x0000000000000000000000000000000000000000"
      ],
      "transaction": {
        "from": "0x4eeb748bd7ca4d4e582d5b9c60c73acdf67d4b8c",
        "to": "0xd344e886856a31b6594337e51a6eefc07dd5d1db",
        "gas": "0x1418d",
        "value": "0x0",
        "input": "0xe63dee480000000000000000000000000000000000000000000000000000000000000000",
        "nonce": "0x2b",
        "chainId": "0x2105"
      },
      "additionalContracts": [],
      "isFixedGasLimit": false
    },
    {
      "hash": "0x8cb67143e154c0536d816b84d8b7a7339c9ad0feff49036f21675972207695d7",
      "transactionType": "CALL",
      "contractName": null,
      "contractAddress": "0xd344e886856a31b6594337e51a6eefc07dd5d1db",
      "function": "setCreateAgentTokenCost(address,uint256)",
      "arguments": [
        "0x0000000000000000000000000000000000000000",
        "42000000000000000"
      ],
      "transaction": {
        "from": "0x4eeb748bd7ca4d4e582d5b9c60c73acdf67d4b8c",
        "to": "0xd344e886856a31b6594337e51a6eefc07dd5d1db",
        "gas": "0x139e7",
        "value": "0x0",
        "input": "0x19ea61c40000000000000000000000000000000000000000000000000000000000000000000000000000000000000000000000000000000000000000009536c708910000",
        "nonce": "0x2c",
        "chainId": "0x2105"
      },
      "additionalContracts": [],
      "isFixedGasLimit": false
    },
    {
      "hash": "0x2657d4eeacb5e376a4af9d35798a0055c472bf4185812608d2463f7177be8b8c",
      "transactionType": "CALL",
      "contractName": null,
      "contractAddress": "0xd344e886856a31b6594337e51a6eefc07dd5d1db",
      "function": "setUpdateCreateAgentTokenCost(address,uint256)",
      "arguments": [
        "0x0000000000000000000000000000000000000000",
        "0"
      ],
      "transaction": {
        "from": "0x4eeb748bd7ca4d4e582d5b9c60c73acdf67d4b8c",
        "to": "0xd344e886856a31b6594337e51a6eefc07dd5d1db",
        "gas": "0xbcb6",
        "value": "0x0",
        "input": "0x821c8ba100000000000000000000000000000000000000000000000000000000000000000000000000000000000000000000000000000000000000000000000000000000",
        "nonce": "0x2d",
        "chainId": "0x2105"
      },
      "additionalContracts": [],
      "isFixedGasLimit": false
    }
  ],
  "receipts": [
    {
      "status": "0x1",
      "cumulativeGasUsed": "0x32e4503",
      "logs": [
        {
          "address": "0xd344e886856a31b6594337e51a6eefc07dd5d1db",
          "topics": [
            "0xa18d3ff16bc484e128eabcf244718e89aadc30bd9708fb720f3109b1415503f3"
          ],
          "data": "0x0000000000000000000000000000000000000000000000000000000000000000",
          "blockHash": "0x122535800ac31c80172af55f07dc9de1782f846edb36fc6b6e57f0b50e64e909",
          "blockNumber": "0x1c85087",
          "transactionHash": "0x2884f219010cc2747b7c673623a68570605eb863dfa0aadf7e89949722935a6b",
          "transactionIndex": "0xa4",
          "logIndex": "0x201",
          "removed": false
        }
      ],
      "logsBloom": "0x00008000000000000000000000000010000000000000000000000000000000000000000000000000000000000000020001000000000000000000000000000000000000000000000000000000000000000000000000000000000000000000000000000000000000000000000000000000000000000000000000000000000000000000000000000000000000000000000000000000001000000000000000000000000000000000000000000000000000000000000000000000000000000000000000000000000000000000000000000000000000000000000000000000000000000000000000000000000000000000000000000000000000000002000000000000",
      "type": "0x2",
      "transactionHash": "0x2884f219010cc2747b7c673623a68570605eb863dfa0aadf7e89949722935a6b",
      "transactionIndex": "0xa4",
      "blockHash": "0x122535800ac31c80172af55f07dc9de1782f846edb36fc6b6e57f0b50e64e909",
      "blockNumber": "0x1c85087",
      "gasUsed": "0xe8cd",
      "effectiveGasPrice": "0x11d6eb",
      "from": "0x4eeb748bd7ca4d4e582d5b9c60c73acdf67d4b8c",
      "to": "0xd344e886856a31b6594337e51a6eefc07dd5d1db",
      "contractAddress": null,
      "l1BaseFeeScalar": "0x8dd",
      "l1BlobBaseFee": "0x86cdd5c",
      "l1BlobBaseFeeScalar": "0x101c12",
      "l1Fee": "0x3bad66a75",
      "l1GasPrice": "0x11fee2c9",
      "l1GasUsed": "0x640"
    },
    {
      "status": "0x1",
      "cumulativeGasUsed": "0x32f1ba6",
      "logs": [
        {
          "address": "0xd344e886856a31b6594337e51a6eefc07dd5d1db",
          "topics": [
            "0x694aa63d946094ce1aeccef5c17db0a23a409eddfb68793b3c29fea103d12086"
          ],
          "data": "0x0000000000000000000000000000000000000000000000000000000000000000000000000000000000000000000000000000000000000000009536c708910000",
          "blockHash": "0x122535800ac31c80172af55f07dc9de1782f846edb36fc6b6e57f0b50e64e909",
          "blockNumber": "0x1c85087",
          "transactionHash": "0x8cb67143e154c0536d816b84d8b7a7339c9ad0feff49036f21675972207695d7",
          "transactionIndex": "0xa5",
          "logIndex": "0x202",
          "removed": false
        }
      ],
      "logsBloom": "0x00000000000000000000000000000010000000000000000000000004000000000000000000000000000000000000020000000000000000000000008000000000000000000000000000000000000000000000000000000000000000000000000000000000000000000000000000000000000000000000000000000000000000000000000000000000000000000000000000000000000000000000000000000000000000000000000000000000000000000000000000000000000000000000000000000000000000000000000000000000000000000000010000000000000000000000000000000000000000000000000000000000000000000002000000000000",
      "type": "0x2",
      "transactionHash": "0x8cb67143e154c0536d816b84d8b7a7339c9ad0feff49036f21675972207695d7",
      "transactionIndex": "0xa5",
      "blockHash": "0x122535800ac31c80172af55f07dc9de1782f846edb36fc6b6e57f0b50e64e909",
      "blockNumber": "0x1c85087",
      "gasUsed": "0xd6a3",
      "effectiveGasPrice": "0x11d6eb",
      "from": "0x4eeb748bd7ca4d4e582d5b9c60c73acdf67d4b8c",
      "to": "0xd344e886856a31b6594337e51a6eefc07dd5d1db",
      "contractAddress": null,
      "l1BaseFeeScalar": "0x8dd",
      "l1BlobBaseFee": "0x86cdd5c",
      "l1BlobBaseFeeScalar": "0x101c12",
      "l1Fee": "0x3bad66a75",
      "l1GasPrice": "0x11fee2c9",
      "l1GasUsed": "0x640"
    },
    {
      "status": "0x1",
      "cumulativeGasUsed": "0x32fa446",
      "logs": [
        {
          "address": "0xd344e886856a31b6594337e51a6eefc07dd5d1db",
          "topics": [
            "0xb74c378f83cb6eb186d519c74f0def054cc246ca81bccd2c53b5d0d699501324"
          ],
          "data": "0x00000000000000000000000000000000000000000000000000000000000000000000000000000000000000000000000000000000000000000000000000000000",
          "blockHash": "0x122535800ac31c80172af55f07dc9de1782f846edb36fc6b6e57f0b50e64e909",
          "blockNumber": "0x1c85087",
          "transactionHash": "0x2657d4eeacb5e376a4af9d35798a0055c472bf4185812608d2463f7177be8b8c",
          "transactionIndex": "0xa6",
          "logIndex": "0x203",
          "removed": false
        }
      ],
      "logsBloom": "0x00000000000000000000000000000010000004000000000000000000000000000000000000000000000000000000020000000000000000000100000000000000000000000000000000400000000000000000000000000000000000000000000000000000000000000000000000000000000000000000000000000000000000000000000000000000000000000000000000000000000000000000000000000000000000000000000000000000000000000000000000000000000000000000000000000000000000000000000000000000000000000000000000000000000000000000000000000000000000000000000000000000000000000002000000000000",
      "type": "0x2",
      "transactionHash": "0x2657d4eeacb5e376a4af9d35798a0055c472bf4185812608d2463f7177be8b8c",
      "transactionIndex": "0xa6",
      "blockHash": "0x122535800ac31c80172af55f07dc9de1782f846edb36fc6b6e57f0b50e64e909",
      "blockNumber": "0x1c85087",
      "gasUsed": "0x88a0",
      "effectiveGasPrice": "0x11d6eb",
      "from": "0x4eeb748bd7ca4d4e582d5b9c60c73acdf67d4b8c",
      "to": "0xd344e886856a31b6594337e51a6eefc07dd5d1db",
      "contractAddress": null,
      "l1BaseFeeScalar": "0x8dd",
      "l1BlobBaseFee": "0x86cdd5c",
      "l1BlobBaseFeeScalar": "0x101c12",
      "l1Fee": "0x3bad66a75",
      "l1GasPrice": "0x11fee2c9",
      "l1GasUsed": "0x640"
    }
  ],
  "libraries": [],
  "pending": [],
  "returns": {},
  "timestamp": 1746599411,
  "chain": 8453,
  "commit": "939f4c2"
}