{
  "transactions": [
    {
      "hash": "0x029fa2c9f8f420815c27c28c78c6aa0e18c450c51dcb3054820128946c22151f",
      "transactionType": "CALL",
      "contractName": null,
      "contractAddress": "0xd344e886856a31b6594337e51a6eefc07dd5d1db",
      "function": "setWhitelistAddresses(address[])",
      "arguments": [
        "[0xe1EF7f5E9957a2CB1b50989cBE4Ea49342E32f86, 0xc889641dBf066E20B304a76a1BCed9EF28044C5f, 0xe1EF7f5E9957a2CB1b50989cBE4Ea49342E32f86, 0xEC5f4be2550a8a58C538C3B0CE37f09DfA0690b9, 0x44Cc5F6D0b3783038da744591d27a7206A9F9cBE, 0xDA088D58233e21766181cFE3180540D0feAEe7A8, 0x25754902849B3525cF4389d4cd8BA6F584B71B37, 0xa706D2D200A9Df76b2ee84D4d50f5856099af849, 0x0fF7A74d29929DD826822b4FB11d4417d2878aF1]"
      ],
      "transaction": {
        "from": "0x4eeb748bd7ca4d4e582d5b9c60c73acdf67d4b8c",
        "to": "0xd344e886856a31b6594337e51a6eefc07dd5d1db",
        "gas": "0x34acd",
        "value": "0x0",
        "input": "0xf52ccc2d00000000000000000000000000000000000000000000000000000000000000200000000000000000000000000000000000000000000000000000000000000009000000000000000000000000e1ef7f5e9957a2cb1b50989cbe4ea49342e32f86000000000000000000000000c889641dbf066e20b304a76a1bced9ef28044c5f000000000000000000000000e1ef7f5e9957a2cb1b50989cbe4ea49342e32f86000000000000000000000000ec5f4be2550a8a58c538c3b0ce37f09dfa0690b900000000000000000000000044cc5f6d0b3783038da744591d27a7206a9f9cbe000000000000000000000000da088d58233e21766181cfe3180540d0feaee7a800000000000000000000000025754902849b3525cf4389d4cd8ba6f584b71b37000000000000000000000000a706d2d200a9df76b2ee84d4d50f5856099af8490000000000000000000000000ff7a74d29929dd826822b4fb11d4417d2878af1",
        "nonce": "0x18",
        "chainId": "0x2105"
      },
      "additionalContracts": [],
      "isFixedGasLimit": false
    }
  ],
  "receipts": [
    {
      "status": "0x1",
      "cumulativeGasUsed": "0x212e789",
      "logs": [],
      "logsBloom": "0x00000000000000000000000000000000000000000000000000000000000000000000000000000000000000000000000000000000000000000000000000000000000000000000000000000000000000000000000000000000000000000000000000000000000000000000000000000000000000000000000000000000000000000000000000000000000000000000000000000000000000000000000000000000000000000000000000000000000000000000000000000000000000000000000000000000000000000000000000000000000000000000000000000000000000000000000000000000000000000000000000000000000000000000000000000000",
      "type": "0x2",
      "transactionHash": "0x029fa2c9f8f420815c27c28c78c6aa0e18c450c51dcb3054820128946c22151f",
      "transactionIndex": "0x80",
      "blockHash": "0x4896b0dee07df82f9fee1968a354f689274465bf47ac841ea1ed562b3e158d39",
      "blockNumber": "0x1a5560c",
      "gasUsed": "0x2622d",
      "effectiveGasPrice": "0x31972f",
      "from": "0x4eeb748bd7ca4d4e582d5b9c60c73acdf67d4b8c",
      "to": "0xd344e886856a31b6594337e51a6eefc07dd5d1db",
      "contractAddress": null,
      "l1BaseFeeScalar": "0x8dd",
      "l1BlobBaseFee": "0x5f91a",
      "l1BlobBaseFeeScalar": "0x101c12",
      "l1Fee": "0x100f76aa0",
      "l1GasPrice": "0x1c31237e",
      "l1GasUsed": "0xf52"
    }
  ],
  "libraries": [],
  "pending": [],
  "returns": {},
  "timestamp": 1742014716,
  "chain": 8453,
  "commit": "8a7962f"
}