{
  "transactions": [
    {
      "hash": "0x45fd160edca5b7810307d3a5cb190af894de57d8ac8454656e5d0f6c945e11d5",
      "transactionType": "CALL",
      "contractName": null,
      "contractAddress": "0xd344e886856a31b6594337e51a6eefc07dd5d1db",
      "function": "setWhitelistAddresses(address[])",
      "arguments": [
        "[0xd32cdB39d204b3945496Fed07c3096067F14F613, 0xa8E70CFccCF6A219E673d83e36C1CB9813301932, 0xA5Ea7410572B106DF903d5E3E07214EB73AE69fb, 0x618F82750Ebf6acc459f5Fd59D454ff49334F16E, 0x9596B6554d653927800Ad13c9Df4193d12C07F61, 0x00BBe7620af5C6f43d569f3B1822Ea3D87A011e7]"
      ],
      "transaction": {
        "from": "0x4eeb748bd7ca4d4e582d5b9c60c73acdf67d4b8c",
        "to": "0xd344e886856a31b6594337e51a6eefc07dd5d1db",
        "gas": "0x19dc2",
        "value": "0x0",
        "input": "0xf52ccc2d00000000000000000000000000000000000000000000000000000000000000200000000000000000000000000000000000000000000000000000000000000006000000000000000000000000d32cdb39d204b3945496fed07c3096067f14f613000000000000000000000000a8e70cfcccf6a219e673d83e36c1cb9813301932000000000000000000000000a5ea7410572b106df903d5e3e07214eb73ae69fb000000000000000000000000618f82750ebf6acc459f5fd59d454ff49334f16e0000000000000000000000009596b6554d653927800ad13c9df4193d12c07f6100000000000000000000000000bbe7620af5c6f43d569f3b1822ea3d87a011e7",
        "nonce": "0x1a",
        "chainId": "0x2105"
      },
      "additionalContracts": [],
      "isFixedGasLimit": false
    }
  ],
  "receipts": [
    {
      "status": "0x1",
      "cumulativeGasUsed": "0x21761d9",
      "logs": [],
      "logsBloom": "0x00000000000000000000000000000000000000000000000000000000000000000000000000000000000000000000000000000000000000000000000000000000000000000000000000000000000000000000000000000000000000000000000000000000000000000000000000000000000000000000000000000000000000000000000000000000000000000000000000000000000000000000000000000000000000000000000000000000000000000000000000000000000000000000000000000000000000000000000000000000000000000000000000000000000000000000000000000000000000000000000000000000000000000000000000000000",
      "type": "0x2",
      "transactionHash": "0x45fd160edca5b7810307d3a5cb190af894de57d8ac8454656e5d0f6c945e11d5",
      "transactionIndex": "0x79",
      "blockHash": "0x8872203f1d4c6272dca275560299ba4bbff96fc4905993e6c5a2de30e766aa30",
      "blockNumber": "0x1a663ba",
      "gasUsed": "0x11aea",
      "effectiveGasPrice": "0x3b296f",
      "from": "0x4eeb748bd7ca4d4e582d5b9c60c73acdf67d4b8c",
      "to": "0xd344e886856a31b6594337e51a6eefc07dd5d1db",
      "contractAddress": null,
      "l1BaseFeeScalar": "0x8dd",
      "l1BlobBaseFee": "0x194b19aa",
      "l1BlobBaseFeeScalar": "0x101c12",
      "l1Fee": "0x159081a125",
      "l1GasPrice": "0x1f2c2fcf",
      "l1GasUsed": "0xc65"
    }
  ],
  "libraries": [],
  "pending": [],
  "returns": {},
  "timestamp": 1742152793,
  "chain": 8453,
  "commit": "8a7962f"
}