{
  "transactions": [
    {
      "hash": "0xf67d79ad9e9718ec20e40bde7a4e531ba1b323b6b1c560a1a09e906063bc84d0",
      "transactionType": "CALL",
      "contractName": null,
      "contractAddress": "0xd344e886856a31b6594337e51a6eefc07dd5d1db",
      "function": "setWhitelistAddresses(address[])",
      "arguments": [
        "[0x0f610d3473c92Ebd52E22F84be0F743ED938952a]"
      ],
      "transaction": {
        "from": "0x4eeb748bd7ca4d4e582d5b9c60c73acdf67d4b8c",
        "to": "0xd344e886856a31b6594337e51a6eefc07dd5d1db",
        "gas": "0x12858",
        "value": "0x0",
        "input": "0xf52ccc2d000000000000000000000000000000000000000000000000000000000000002000000000000000000000000000000000000000000000000000000000000000010000000000000000000000000f610d3473c92ebd52e22f84be0f743ed938952a",
        "nonce": "0x19",
        "chainId": "0x2105"
      },
      "additionalContracts": [],
      "isFixedGasLimit": false
    }
  ],
  "receipts": [
    {
      "status": "0x1",
      "cumulativeGasUsed": "0x318cf93",
      "logs": [],
      "logsBloom": "0x00000000000000000000000000000000000000000000000000000000000000000000000000000000000000000000000000000000000000000000000000000000000000000000000000000000000000000000000000000000000000000000000000000000000000000000000000000000000000000000000000000000000000000000000000000000000000000000000000000000000000000000000000000000000000000000000000000000000000000000000000000000000000000000000000000000000000000000000000000000000000000000000000000000000000000000000000000000000000000000000000000000000000000000000000000000",
      "type": "0x2",
      "transactionHash": "0xf67d79ad9e9718ec20e40bde7a4e531ba1b323b6b1c560a1a09e906063bc84d0",
      "transactionIndex": "0x9d",
      "blockHash": "0x88adcc92c32cde64bd38634e26743fabd0761935c4e173e6993392f5d20312db",
      "blockNumber": "0x1a57036",
      "gasUsed": "0xcaa1",
      "effectiveGasPrice": "0x2cc0d4",
      "from": "0x4eeb748bd7ca4d4e582d5b9c60c73acdf67d4b8c",
      "to": "0xd344e886856a31b6594337e51a6eefc07dd5d1db",
      "contractAddress": null,
      "l1BaseFeeScalar": "0x8dd",
      "l1BlobBaseFee": "0x22f3f7",
      "l1BlobBaseFeeScalar": "0x101c12",
      "l1Fee": "0x6a08af79",
      "l1GasPrice": "0x193c93ee",
      "l1GasUsed": "0x640"
    }
  ],
  "libraries": [],
  "pending": [],
  "returns": {},
  "timestamp": 1742028112,
  "chain": 8453,
  "commit": "8a7962f"
}