{
  "transactions": [
    {
      "hash": "0x0378eed392377a5da4a7de0df87b489a847727ba343d52206b639927384a5986",
      "transactionType": "CALL",
      "contractName": null,
      "contractAddress": "0xd344e886856a31b6594337e51a6eefc07dd5d1db",
      "function": "setWhitelistAddresses(address[])",
      "arguments": [
        "[0x626158F12DDd02F99abeF1Fc9e4Ea1505Fc9F3B6]"
      ],
      "transaction": {
        "from": "0x4eeb748bd7ca4d4e582d5b9c60c73acdf67d4b8c",
        "to": "0xd344e886856a31b6594337e51a6eefc07dd5d1db",
        "gas": "0x12858",
        "value": "0x0",
        "input": "0xf52ccc2d00000000000000000000000000000000000000000000000000000000000000200000000000000000000000000000000000000000000000000000000000000001000000000000000000000000626158f12ddd02f99abef1fc9e4ea1505fc9f3b6",
        "nonce": "0x1b",
        "chainId": "0x2105"
      },
      "additionalContracts": [],
      "isFixedGasLimit": false
    }
  ],
  "receipts": [
    {
      "status": "0x1",
      "cumulativeGasUsed": "0x2db277a",
      "logs": [],
      "logsBloom": "0x00000000000000000000000000000000000000000000000000000000000000000000000000000000000000000000000000000000000000000000000000000000000000000000000000000000000000000000000000000000000000000000000000000000000000000000000000000000000000000000000000000000000000000000000000000000000000000000000000000000000000000000000000000000000000000000000000000000000000000000000000000000000000000000000000000000000000000000000000000000000000000000000000000000000000000000000000000000000000000000000000000000000000000000000000000000",
      "type": "0x2",
      "transactionHash": "0x0378eed392377a5da4a7de0df87b489a847727ba343d52206b639927384a5986",
      "transactionIndex": "0x83",
      "blockHash": "0xa7f919dd498e4f70fd62f845bedd3e7bd9f5586a20cd90dbc36c61c038ca40f1",
      "blockNumber": "0x1a6ac31",
      "gasUsed": "0xcaa1",
      "effectiveGasPrice": "0x29f354",
      "from": "0x4eeb748bd7ca4d4e582d5b9c60c73acdf67d4b8c",
      "to": "0xd344e886856a31b6594337e51a6eefc07dd5d1db",
      "contractAddress": null,
      "l1BaseFeeScalar": "0x8dd",
      "l1BlobBaseFee": "0x214b31c7",
      "l1BlobBaseFeeScalar": "0x101c12",
      "l1Fee": "0xe194be138",
      "l1GasPrice": "0x19f79630",
      "l1GasUsed": "0x640"
    }
  ],
  "libraries": [],
  "pending": [],
  "returns": {},
  "timestamp": 1742189895,
  "chain": 8453,
  "commit": "8a7962f"
}