{
  "transactions": [
    {
      "hash": "0x57b5c2205fc9ee393c0b8da36006adf36a8814df8bc4184cb02404e33907006e",
      "transactionType": "CALL",
      "contractName": null,
      "contractAddress": "0xd344e886856a31b6594337e51a6eefc07dd5d1db",
      "function": "setWhitelistAddresses(address[])",
      "arguments": [
        "[0x4066622fdF4e293c3e25851cBf7c935523Ca7238]"
      ],
      "transaction": {
        "from": "0x4eeb748bd7ca4d4e582d5b9c60c73acdf67d4b8c",
        "to": "0xd344e886856a31b6594337e51a6eefc07dd5d1db",
        "gas": "0x12858",
        "value": "0x0",
        "input": "0xf52ccc2d000000000000000000000000000000000000000000000000000000000000002000000000000000000000000000000000000000000000000000000000000000010000000000000000000000004066622fdf4e293c3e25851cbf7c935523ca7238",
        "nonce": "0x10",
        "chainId": "0x2105"
      },
      "additionalContracts": [],
      "isFixedGasLimit": false
    }
  ],
  "receipts": [
    {
      "status": "0x1",
      "cumulativeGasUsed": "0x1a9e13b",
      "logs": [],
      "logsBloom": "0x00000000000000000000000000000000000000000000000000000000000000000000000000000000000000000000000000000000000000000000000000000000000000000000000000000000000000000000000000000000000000000000000000000000000000000000000000000000000000000000000000000000000000000000000000000000000000000000000000000000000000000000000000000000000000000000000000000000000000000000000000000000000000000000000000000000000000000000000000000000000000000000000000000000000000000000000000000000000000000000000000000000000000000000000000000000",
      "type": "0x2",
      "transactionHash": "0x57b5c2205fc9ee393c0b8da36006adf36a8814df8bc4184cb02404e33907006e",
      "transactionIndex": "0x76",
      "blockHash": "0xf726ab2e55ab8bbc441971943e1c08a9400ba5379ef6f3b5d267e05ed1ecaef1",
      "blockNumber": "0x19d9703",
      "gasUsed": "0xcaa1",
      "effectiveGasPrice": "0x3443c5",
      "from": "0x4eeb748bd7ca4d4e582d5b9c60c73acdf67d4b8c",
      "to": "0xd344e886856a31b6594337e51a6eefc07dd5d1db",
      "contractAddress": null,
      "l1BaseFeeScalar": "0x8dd",
      "l1BlobBaseFee": "0x88d56729",
      "l1BlobBaseFeeScalar": "0x101c12",
      "l1Fee": "0x38fcad0cab",
      "l1GasPrice": "0x2732a691",
      "l1GasUsed": "0x640"
    }
  ],
  "libraries": [],
  "pending": [],
  "returns": {},
  "timestamp": 1740999402,
  "chain": 8453,
  "commit": "235f8c7"
}