{
  "transactions": [
    {
      "hash": "0x57e705f60767754db09bc1ed4b6fdf2bc63453e0efad90a7b2d4cbfa764ab591",
      "transactionType": "CALL",
      "contractName": null,
      "contractAddress": "0xd344e886856a31b6594337e51a6eefc07dd5d1db",
      "function": "setWhitelistAddresses(address[])",
      "arguments": [
        "[0x0CE4E22911a60cE20cD66e8e4dD31A911F8391F4]"
      ],
      "transaction": {
        "from": "0x4eeb748bd7ca4d4e582d5b9c60c73acdf67d4b8c",
        "to": "0xd344e886856a31b6594337e51a6eefc07dd5d1db",
        "gas": "0x12858",
        "value": "0x0",
        "input": "0xf52ccc2d000000000000000000000000000000000000000000000000000000000000002000000000000000000000000000000000000000000000000000000000000000010000000000000000000000000ce4e22911a60ce20cd66e8e4dd31a911f8391f4",
        "nonce": "0xe",
        "chainId": "0x2105"
      },
      "additionalContracts": [],
      "isFixedGasLimit": false
    }
  ],
  "receipts": [
    {
      "status": "0x1",
      "cumulativeGasUsed": "0x1545b2a",
      "logs": [],
      "logsBloom": "0x00000000000000000000000000000000000000000000000000000000000000000000000000000000000000000000000000000000000000000000000000000000000000000000000000000000000000000000000000000000000000000000000000000000000000000000000000000000000000000000000000000000000000000000000000000000000000000000000000000000000000000000000000000000000000000000000000000000000000000000000000000000000000000000000000000000000000000000000000000000000000000000000000000000000000000000000000000000000000000000000000000000000000000000000000000000",
      "type": "0x2",
      "transactionHash": "0x57e705f60767754db09bc1ed4b6fdf2bc63453e0efad90a7b2d4cbfa764ab591",
      "transactionIndex": "0x57",
      "blockHash": "0x25d87a8a813b079bcbc0110dc1e31b00b5b72e95136852e8a2930604adbbdce7",
      "blockNumber": "0x19aea6c",
      "gasUsed": "0xcaa1",
      "effectiveGasPrice": "0x3d1ad2",
      "from": "0x4eeb748bd7ca4d4e582d5b9c60c73acdf67d4b8c",
      "to": "0xd344e886856a31b6594337e51a6eefc07dd5d1db",
      "contractAddress": null,
      "l1BaseFeeScalar": "0x8dd",
      "l1BlobBaseFee": "0x4632d75f",
      "l1BlobBaseFeeScalar": "0x101c12",
      "l1Fee": "0x1d7f53dcfd",
      "l1GasPrice": "0x26920b38",
      "l1GasUsed": "0x640"
    }
  ],
  "libraries": [],
  "pending": [],
  "returns": {},
  "timestamp": 1740648892,
  "chain": 8453,
  "commit": "235f8c7"
}