{
  "transactions": [
    {
      "hash": "0x7bfa85390825331d8dca2c017211c1f2226636a16ffb225c870730ba0fa6af33",
      "transactionType": "CALL",
      "contractName": null,
      "contractAddress": "0xd344e886856a31b6594337e51a6eefc07dd5d1db",
      "function": "setWhitelistAddresses(address[])",
      "arguments": [
        "[0x9b77F3069C5E1dfDcC044b0fdb30E94A6956C2c2, 0x3E6D8688161856d9276E11a90AA9779E9Ace263b, 0x3Cb52144817A59eC5fB3DdA1aBc6fA1A33d074cE, 0x010843c6dE6452C6cA3E00B5E85EfE24A85fCB1b, 0xA293826fAdee350984221FF90421885e6c32b773, 0xBD32Cd4cB376A02eB8528242065e77572c5Dc937]"
      ],
      "transaction": {
        "from": "0x4eeb748bd7ca4d4e582d5b9c60c73acdf67d4b8c",
        "to": "0xd344e886856a31b6594337e51a6eefc07dd5d1db",
        "gas": "0x34483",
        "value": "0x0",
        "input": "0xf52ccc2d000000000000000000000000000000000000000000000000000000000000002000000000000000000000000000000000000000000000000000000000000000060000000000000000000000009b77f3069c5e1dfdcc044b0fdb30e94a6956c2c20000000000000000000000003e6d8688161856d9276e11a90aa9779e9ace263b0000000000000000000000003cb52144817a59ec5fb3dda1abc6fa1a33d074ce000000000000000000000000010843c6de6452c6ca3e00b5e85efe24a85fcb1b000000000000000000000000a293826fadee350984221ff90421885e6c32b773000000000000000000000000bd32cd4cb376a02eb8528242065e77572c5dc937",
        "nonce": "0x1f",
        "chainId": "0x2105"
      },
      "additionalContracts": [],
      "isFixedGasLimit": false
    }
  ],
  "receipts": [
    {
      "status": "0x1",
      "cumulativeGasUsed": "0x26d1ae4",
      "logs": [],
      "logsBloom": "0x00000000000000000000000000000000000000000000000000000000000000000000000000000000000000000000000000000000000000000000000000000000000000000000000000000000000000000000000000000000000000000000000000000000000000000000000000000000000000000000000000000000000000000000000000000000000000000000000000000000000000000000000000000000000000000000000000000000000000000000000000000000000000000000000000000000000000000000000000000000000000000000000000000000000000000000000000000000000000000000000000000000000000000000000000000000",
      "type": "0x2",
      "transactionHash": "0x7bfa85390825331d8dca2c017211c1f2226636a16ffb225c870730ba0fa6af33",
      "transactionIndex": "0x80",
      "blockHash": "0x81845af08e4b02388e1eeb6cf4f2457c4ae394d971b4704c4c44714b89e5d822",
      "blockNumber": "0x1a7f83a",
      "gasUsed": "0x23bfa",
      "effectiveGasPrice": "0x2db46b",
      "from": "0x4eeb748bd7ca4d4e582d5b9c60c73acdf67d4b8c",
      "to": "0xd344e886856a31b6594337e51a6eefc07dd5d1db",
      "contractAddress": null,
      "l1BaseFeeScalar": "0x8dd",
      "l1BlobBaseFee": "0x1",
      "l1BlobBaseFeeScalar": "0x101c12",
      "l1Fee": "0xc4ea2c54",
      "l1GasPrice": "0x1b3bf738",
      "l1GasUsed": "0xc72"
    }
  ],
  "libraries": [],
  "pending": [],
  "returns": {},
  "timestamp": 1742359897,
  "chain": 8453,
  "commit": "dc45e98"
}