{
  "transactions": [
    {
      "hash": "0xcdc7e82f59143984c2ce6f9427b588ff75fb35febe0cdd3753d309a4d2bb9a32",
      "transactionType": "CALL",
      "contractName": null,
      "contractAddress": "0xd344e886856a31b6594337e51a6eefc07dd5d1db",
      "function": "setWhitelistAddresses(address[])",
      "arguments": [
        "[0x97b33938fd768E7533aA20406D6E9ADfD382fAdB, 0xA5Ea7410572B106DF903d5E3E07214EB73AE69fb, 0xc8589878Edba4bD7D58450bF325B9F1b92f7177e, 0x25e0Bd6975433D72a43f22De9771703FC06063f7, 0xB52dc0E049196064b2e5721effD12401e480Ce04, 0x3A37DD3025a483E444Be8Db7Ba8CDAc78Aa3C1Ff, 0x524Fa9754615aBF799fEE9EB1283D7E506d80e45, 0x2691Dcb096be5a44274A7dA465625cE5c5C97B56, 0xD0D6FCFD6B49be23b6614E4947346f4c44a68520, 0x00BBe7620af5C6f43d569f3B1822Ea3D87A011e7, 0xEF1414e26892C56E95A1C85755318ef20A805830, 0x9596B6554d653927800Ad13c9Df4193d12C07F61, 0x75457dA49f4fb73660f1661978E70DC42b82c7Ad, 0xD1DD6863F6E8fBd226F463d3E4F72971BE0E873f, 0x9D7FEF2Dd2f3407A0b58a0d93b38c83e35022Fc2, 0x49CE64c9013160c8084d5547a4B28f8BFE5372Be, 0x178741Fc5BA9B77147398853c28736eEFe5fCff1, 0x4023c5DB63d01c0A797D7949B2D5396Fd963EA49, 0x79a5895b5DA8A6c82FC0b2cDC326177128f507f2, 0xdFE1432bd862c34B33F64f315F4A3177032ff36D, 0x5c35ac02007046192EfB35658b4Ba442AD530ba0, 0xeb5105f298DbDfeD3B317E8176949e432C997C4b, 0x4d0Bb2c2897e16DC36Bd445e342090a14F303A07, 0x1b21de13c7CAF11c084B235544b37d8f67EC873A, 0xf98c4C38C92bF14D9d78aC0746117f17C40d4564, 0x8293306092ac7a68c303d05244Cce7fca68BdE8f, 0xc2035f9F53E9b1B3679cd5E72029dAaD4a7eaa73]"
      ],
      "transaction": {
        "from": "0x4eeb748bd7ca4d4e582d5b9c60c73acdf67d4b8c",
        "to": "0xd344e886856a31b6594337e51a6eefc07dd5d1db",
        "gas": "0xda341",
        "value": "0x0",
        "input": "0xf52ccc2d0000000000000000000000000000000000000000000000000000000000000020000000000000000000000000000000000000000000000000000000000000001b00000000000000000000000097b33938fd768e7533aa20406d6e9adfd382fadb000000000000000000000000a5ea7410572b106df903d5e3e07214eb73ae69fb000000000000000000000000c8589878edba4bd7d58450bf325b9f1b92f7177e00000000000000000000000025e0bd6975433d72a43f22de9771703fc06063f7000000000000000000000000b52dc0e049196064b2e5721effd12401e480ce040000000000000000000000003a37dd3025a483e444be8db7ba8cdac78aa3c1ff000000000000000000000000524fa9754615abf799fee9eb1283d7e506d80e450000000000000000000000002691dcb096be5a44274a7da465625ce5c5c97b56000000000000000000000000d0d6fcfd6b49be23b6614e4947346f4c44a6852000000000000000000000000000bbe7620af5c6f43d569f3b1822ea3d87a011e7000000000000000000000000ef1414e26892c56e95a1c85755318ef20a8058300000000000000000000000009596b6554d653927800ad13c9df4193d12c07f6100000000000000000000000075457da49f4fb73660f1661978e70dc42b82c7ad000000000000000000000000d1dd6863f6e8fbd226f463d3e4f72971be0e873f0000000000000000000000009d7fef2dd2f3407a0b58a0d93b38c83e35022fc200000000000000000000000049ce64c9013160c8084d5547a4b28f8bfe5372be000000000000000000000000178741fc5ba9b77147398853c28736eefe5fcff10000000000000000000000004023c5db63d01c0a797d7949b2d5396fd963ea4900000000000000000000000079a5895b5da8a6c82fc0b2cdc326177128f507f2000000000000000000000000dfe1432bd862c34b33f64f315f4a3177032ff36d0000000000000000000000005c35ac02007046192efb35658b4ba442ad530ba0000000000000000000000000eb5105f298dbdfed3b317e8176949e432c997c4b0000000000000000000000004d0bb2c2897e16dc36bd445e342090a14f303a070000000000000000000000001b21de13c7caf11c084b235544b37d8f67ec873a000000000000000000000000f98c4c38c92bf14d9d78ac0746117f17c40d45640000000000000000000000008293306092ac7a68c303d05244cce7fca68bde8f000000000000000000000000c2035f9f53e9b1b3679cd5e72029daad4a7eaa73",
        "nonce": "0x9",
        "chainId": "0x2105"
      },
      "additionalContracts": [],
      "isFixedGasLimit": false
    }
  ],
  "receipts": [
    {
      "status": "0x1",
      "cumulativeGasUsed": "0x27aacf0",
      "logs": [],
      "logsBloom": "0x00000000000000000000000000000000000000000000000000000000000000000000000000000000000000000000000000000000000000000000000000000000000000000000000000000000000000000000000000000000000000000000000000000000000000000000000000000000000000000000000000000000000000000000000000000000000000000000000000000000000000000000000000000000000000000000000000000000000000000000000000000000000000000000000000000000000000000000000000000000000000000000000000000000000000000000000000000000000000000000000000000000000000000000000000000000",
      "type": "0x2",
      "transactionHash": "0xcdc7e82f59143984c2ce6f9427b588ff75fb35febe0cdd3753d309a4d2bb9a32",
      "transactionIndex": "0x8c",
      "blockHash": "0x0e637e5882506b98f4022047bd8c7435798bce1fff48bab99da1bdbb3c6b5cb4",
      "blockNumber": "0x198fa1b",
      "gasUsed": "0x9df9c",
      "effectiveGasPrice": "0x2dc350",
      "from": "0x4eeb748bd7ca4d4e582d5b9c60c73acdf67d4b8c",
      "to": "0xd344e886856a31b6594337e51a6eefc07dd5d1db",
      "contractAddress": null,
      "l1BaseFeeScalar": "0x8dd",
      "l1BlobBaseFee": "0x24e65f6",
      "l1BlobBaseFeeScalar": "0x101c12",
      "l1Fee": "0xa00936446",
      "l1GasPrice": "0x2904b965",
      "l1GasUsed": "0x28c8"
    }
  ],
  "libraries": [],
  "pending": [],
  "returns": {},
  "timestamp": 1740394779,
  "chain": 8453,
  "commit": "daecb55"
}