{
  "transactions": [
    {
      "hash": "0xdb52930fae189e13470b972d3ff9d82c1e2699549faa2872affa796a5f47d63c",
      "transactionType": "CALL",
      "contractName": null,
      "contractAddress": "0xd344e886856a31b6594337e51a6eefc07dd5d1db",
      "function": "setWhitelistAddresses(address[])",
      "arguments": [
        "[0x6a3DE2b3bB32b07e8805EAc1ba685280EcFAa45b]"
      ],
      "transaction": {
        "from": "0x4eeb748bd7ca4d4e582d5b9c60c73acdf67d4b8c",
        "to": "0xd344e886856a31b6594337e51a6eefc07dd5d1db",
        "gas": "0x12858",
        "value": "0x0",
        "input": "0xf52ccc2d000000000000000000000000000000000000000000000000000000000000002000000000000000000000000000000000000000000000000000000000000000010000000000000000000000006a3de2b3bb32b07e8805eac1ba685280ecfaa45b",
        "nonce": "0x23",
        "chainId": "0x2105"
      },
      "additionalContracts": [],
      "isFixedGasLimit": false
    }
  ],
  "receipts": [
    {
      "status": "0x1",
      "cumulativeGasUsed": "0x27aae08",
      "logs": [],
      "logsBloom": "0x00000000000000000000000000000000000000000000000000000000000000000000000000000000000000000000000000000000000000000000000000000000000000000000000000000000000000000000000000000000000000000000000000000000000000000000000000000000000000000000000000000000000000000000000000000000000000000000000000000000000000000000000000000000000000000000000000000000000000000000000000000000000000000000000000000000000000000000000000000000000000000000000000000000000000000000000000000000000000000000000000000000000000000000000000000000",
      "type": "0x2",
      "transactionHash": "0xdb52930fae189e13470b972d3ff9d82c1e2699549faa2872affa796a5f47d63c",
      "transactionIndex": "0x9e",
      "blockHash": "0xed07c8c4555b889769ba17471677b4e9982a55952f5db97282cd875f6b95efbd",
      "blockNumber": "0x1afedda",
      "gasUsed": "0xcaa1",
      "effectiveGasPrice": "0x126ca3",
      "from": "0x4eeb748bd7ca4d4e582d5b9c60c73acdf67d4b8c",
      "to": "0xd344e886856a31b6594337e51a6eefc07dd5d1db",
      "contractAddress": null,
      "l1BaseFeeScalar": "0x8dd",
      "l1BlobBaseFee": "0x49b275",
      "l1BlobBaseFeeScalar": "0x101c12",
      "l1Fee": "0x7482fe21",
      "l1GasPrice": "0x17b8b36b",
      "l1GasUsed": "0x640"
    }
  ],
  "libraries": [],
  "pending": [],
  "returns": {},
  "timestamp": 1743403160,
  "chain": 8453,
  "commit": "dc45e98"
}