{
  "transactions": [
    {
      "hash": "0x47929c710cf2ea130b1a067989b1481679de85c9ecb244fefe5d3d6b67963acd",
      "transactionType": "CALL",
      "contractName": null,
      "contractAddress": "0xd344e886856a31b6594337e51a6eefc07dd5d1db",
      "function": "setWhitelistAddresses(address[])",
      "arguments": [
        "[0xA64aD28B1ec843974bE580a2B9312671dCAbeA21]"
      ],
      "transaction": {
        "from": "0x4eeb748bd7ca4d4e582d5b9c60c73acdf67d4b8c",
        "to": "0xd344e886856a31b6594337e51a6eefc07dd5d1db",
        "gas": "0x12858",
        "value": "0x0",
        "input": "0xf52ccc2d00000000000000000000000000000000000000000000000000000000000000200000000000000000000000000000000000000000000000000000000000000001000000000000000000000000a64ad28b1ec843974be580a2b9312671dcabea21",
        "nonce": "0x15",
        "chainId": "0x2105"
      },
      "additionalContracts": [],
      "isFixedGasLimit": false
    }
  ],
  "receipts": [
    {
      "status": "0x1",
      "cumulativeGasUsed": "0x1e50d69",
      "logs": [],
      "logsBloom": "0x00000000000000000000000000000000000000000000000000000000000000000000000000000000000000000000000000000000000000000000000000000000000000000000000000000000000000000000000000000000000000000000000000000000000000000000000000000000000000000000000000000000000000000000000000000000000000000000000000000000000000000000000000000000000000000000000000000000000000000000000000000000000000000000000000000000000000000000000000000000000000000000000000000000000000000000000000000000000000000000000000000000000000000000000000000000",
      "type": "0x2",
      "transactionHash": "0x47929c710cf2ea130b1a067989b1481679de85c9ecb244fefe5d3d6b67963acd",
      "transactionIndex": "0x51",
      "blockHash": "0x13a93ddbd559723cf76e71d65ebf2d90fe26b18bd33aca9d3fc9e9831acba054",
      "blockNumber": "0x1a2db71",
      "gasUsed": "0xcaa1",
      "effectiveGasPrice": "0x2b9467",
      "from": "0x4eeb748bd7ca4d4e582d5b9c60c73acdf67d4b8c",
      "to": "0xd344e886856a31b6594337e51a6eefc07dd5d1db",
      "contractAddress": null,
      "l1BaseFeeScalar": "0x8dd",
      "l1BlobBaseFee": "0x2f679080",
      "l1BlobBaseFeeScalar": "0x101c12",
      "l1Fee": "0x1422ee6723",
      "l1GasPrice": "0x295b28c7",
      "l1GasUsed": "0x640"
    }
  ],
  "libraries": [],
  "pending": [],
  "returns": {},
  "timestamp": 1741689798,
  "chain": 8453,
  "commit": "8a7962f"
}