{
  "transactions": [
    {
      "hash": "0x73b6e52a91dd9523eefac3fa1d1174ea1808a347b07311c703f2e25d44339069",
      "transactionType": "CALL",
      "contractName": null,
      "contractAddress": "0xd344e886856a31b6594337e51a6eefc07dd5d1db",
      "function": "setFeeCollectionWalletAddress(address)",
      "arguments": [
        "0x6939A2dE49E1267143CbA057402D0FC8aA589C38"
      ],
      "transaction": {
        "from": "0x4eeb748bd7ca4d4e582d5b9c60c73acdf67d4b8c",
        "to": "0xd344e886856a31b6594337e51a6eefc07dd5d1db",
        "gas": "0x12a44",
        "value": "0x0",
        "input": "0xd800d46b0000000000000000000000006939a2de49e1267143cba057402d0fc8aa589c38",
        "nonce": "0x26",
        "chainId": "0x2105"
      },
      "additionalContracts": [],
      "isFixedGasLimit": false
    }
  ],
  "receipts": [
    {
      "status": "0x1",
      "cumulativeGasUsed": "0x24039ef",
      "logs": [
        {
          "address": "0xd344e886856a31b6594337e51a6eefc07dd5d1db",
          "topics": [
            "0x800db016c595c6b1bb59fbfb195091f579d1abc9828b4660b0836fa635e90df8"
          ],
          "data": "0x0000000000000000000000006939a2de49e1267143cba057402d0fc8aa589c38",
          "blockHash": "0xb0b158a7b89a50b2ccd2f5b870a382854abe1e1cb8f8ec6d1474548ccfe63e66",
          "blockNumber": "0x1b1d4c1",
          "transactionHash": "0x73b6e52a91dd9523eefac3fa1d1174ea1808a347b07311c703f2e25d44339069",
          "transactionIndex": "0xa2",
          "logIndex": "0x1e5",
          "removed": false
        }
      ],
      "logsBloom": "0x00000000000000000000000000000010000000000000000000000000000000000000000000000000000800000000020000000000000000000000000000000000000000000000000000000000000000000000000000000000000000000000000000000000000010000000000000000000000000000000000000000000000000000000008000000000000000000000000000000000000000000000000000000000000000000000000000000000000000000000000000000000000000000000000000000000000000000000000000000000000000000000000000000000000000000000000000000000000000000000000000000000000000000002000000000000",
      "type": "0x2",
      "transactionHash": "0x73b6e52a91dd9523eefac3fa1d1174ea1808a347b07311c703f2e25d44339069",
      "transactionIndex": "0xa2",
      "blockHash": "0xb0b158a7b89a50b2ccd2f5b870a382854abe1e1cb8f8ec6d1474548ccfe63e66",
      "blockNumber": "0x1b1d4c1",
      "gasUsed": "0xcbf2",
      "effectiveGasPrice": "0x163349",
      "from": "0x4eeb748bd7ca4d4e582d5b9c60c73acdf67d4b8c",
      "to": "0xd344e886856a31b6594337e51a6eefc07dd5d1db",
      "contractAddress": null,
      "l1BaseFeeScalar": "0x8dd",
      "l1BlobBaseFee": "0x17d3",
      "l1BlobBaseFeeScalar": "0x101c12",
      "l1Fee": "0x4e91622f",
      "l1GasPrice": "0x15a18f64",
      "l1GasUsed": "0x640"
    }
  ],
  "libraries": [],
  "pending": [],
  "returns": {},
  "timestamp": 1743652456,
  "chain": 8453,
  "commit": "2868d57"
}